{"abi":[{"type":"receive","stateMutability":"payable"},{"type":"function","name":"authorize","inputs":[{"name":"authorized","type":"tuple","internalType":"struct ECDSA.PublicKey","components":[{"name":"x","type":"uint256","internalType":"uint256"},{"name":"y","type":"uint256","internalType":"uint256"}]},{"name":"signature","type":"tuple","internalType":"struct ECDSA.RecoveredSignature","components":[{"name":"r","type":"uint256","internalType":"uint256"},{"name":"s","type":"uint256","internalType":"uint256"},{"name":"yParity","type":"uint8","internalType":"uint8"}]}],"outputs":[],"stateMutability":"nonpayable"},{"type":"function","name":"authorizedKey","inputs":[],"outputs":[{"name":"x","type":"uint256","internalType":"uint256"},{"name":"y","type":"uint256","internalType":"uint256"}],"stateMutability":"view"},{"type":"function","name":"execute","inputs":[{"name":"to","type":"address","internalType":"address"},{"name":"value","type":"uint256","internalType":"uint256"},{"name":"data","type":"bytes","internalType":"bytes"},{"name":"signature","type":"tuple","internalType":"struct ECDSA.Signature","components":[{"name":"r","type":"uint256","internalType":"uint256"},{"name":"s","type":"uint256","internalType":"uint256"}]},{"name":"metadata","type":"tuple","internalType":"struct WebAuthnP256.Metadata","components":[{"name":"authenticatorData","type":"bytes","internalType":"bytes"},{"name":"clientDataJSON","type":"string","internalType":"string"},{"name":"challengeIndex","type":"uint16","internalType":"uint16"},{"name":"typeIndex","type":"uint16","internalType":"uint16"},{"name":"userVerificationRequired","type":"bool","internalType":"bool"}]}],"outputs":[],"stateMutability":"nonpayable"},{"type":"function","name":"nonce","inputs":[],"outputs":[{"name":"","type":"uint256","internalType":"uint256"}],"stateMutability":"view"},{"type":"event","name":"Authorized","inputs":[{"name":"authorized","type":"tuple","indexed":true,"internalType":"struct ECDSA.PublicKey","components":[{"name":"x","type":"uint256","internalType":"uint256"},{"name":"y","type":"uint256","internalType":"uint256"}]}],"anonymous":false},{"type":"event","name":"Executed","inputs":[{"name":"to","type":"address","indexed":true,"internalType":"address"},{"name":"value","type":"uint256","indexed":false,"internalType":"uint256"},{"name":"data","type":"bytes","indexed":false,"internalType":"bytes"}],"anonymous":false}],"bytecode":{"object":"0x6080604052348015600e575f5ffd5b506119d68061001c5f395ff3fe608060405260043610610042575f3560e01c80630f0b37851461004d5780633bc67d4b14610075578063affed0e01461009d578063c417a8c5146100c757610049565b3661004957005b5f5ffd5b348015610058575f5ffd5b50610073600480360381019061006e9190610b5a565b6100f2565b005b348015610080575f5ffd5b5061009b60048036038101906100969190610cc2565b610285565b005b3480156100a8575f5ffd5b506100b1610459565b6040516100be9190610d83565b60405180910390f35b3480156100d2575f5ffd5b506100db61045e565b6040516100e9929190610d9c565b60405180910390f35b5f5f54835f0135846020013560405160200161011093929190610de3565b6040516020818303038152906040528051906020012090505f5f81548092919061013990610e4c565b91905055505f6001825f8560400160208101906101569190610ec9565b60ff161461016557601c610168565b601b5b855f01355f1b86602001355f1b6040515f81526020016040526040516101919493929190610f1b565b6020604051602081039080840390855afa1580156101b1573d5f5f3e3d5ffd5b5050506020604051035190503073ffffffffffffffffffffffffffffffffffffffff168173ffffffffffffffffffffffffffffffffffffffff161461022b576040517f08c379a000000000000000000000000000000000000000000000000000000000815260040161022290610fb8565b60405180910390fd5b836001818161023a91906110d1565b9050508360405161024b9190611156565b60405180910390207f7ab2d3841cf199f7bdf9a46a067653d528b42029acf32bdbe62dd8191ce226ad60405160405180910390a250505050565b5f5f54878787876040516020016102a09594939291906111f1565b6040516020818303038152906040528051906020012090505f5f8154809291906102c990610e4c565b919050555061031281836102dc90611539565b858036038101906102ed9190611598565b60016040518060400160405290815f820154815260200160018201548152505061046f565b610351576040517f08c379a00000000000000000000000000000000000000000000000000000000081526004016103489061160d565b60405180910390fd5b5f8773ffffffffffffffffffffffffffffffffffffffff1687878760405161037a92919061162b565b5f6040518083038185875af1925050503d805f81146103b4576040519150601f19603f3d011682016040523d82523d5f602084013e6103b9565b606091505b50509050806103fd576040517f08c379a00000000000000000000000000000000000000000000000000000000081526004016103f49061168d565b60405180910390fd5b8773ffffffffffffffffffffffffffffffffffffffff167fcaf938de11c367272220bfd1d2baa99ca46665e7bc4d85f00adb51b90fe1fa9f888888604051610447939291906116e7565b60405180910390a25050505050505050565b5f5481565b6001805f0154908060010154905082565b5f6025845f01515110806104af57506104ad845f015160208151811061049857610497611717565b5b602001015160f81c60f81b8560800151610675565b155b156104bc575f905061066d565b5f6040518060400160405280601581526020017f2274797065223a22776562617574686e2e676574220000000000000000000000815250905061050c818660200151876060015161ffff166107f9565b610519575f91505061066d565b5f6105458760405160200161052e9190611764565b6040516020818303038152906040526001806108f3565b90505f81604051602001610559919061181c565b6040516020818303038152906040529050610581818860200151896040015161ffff166107f9565b610590575f935050505061066d565b5f600288602001516040516105a5919061188a565b602060405180830381855afa1580156105c0573d5f5f3e3d5ffd5b5050506040513d601f19601f820116820180604052508101906105e391906118ca565b90505f6002895f0151836040516020016105fe9291906118f5565b60405160208183030381529060405260405161061a919061188a565b602060405180830381855afa158015610635573d5f5f3e3d5ffd5b5050506040513d601f19601f8201168201806040525081019061065891906118ca565b90506106658189896109fd565b955050505050505b949350505050565b5f600160f81b7effffffffffffffffffffffffffffffffffffffffffffffffffffffffffffff1916600160f81b84167effffffffffffffffffffffffffffffffffffffffffffffffffffffffffffff1916146106d3575f90506107f3565b81801561072e5750600460f81b7effffffffffffffffffffffffffffffffffffffffffffffffffffffffffffff1916600460f81b84167effffffffffffffffffffffffffffffffffffffffffffffffffffffffffffff191614155b1561073b575f90506107f3565b600860f81b7effffffffffffffffffffffffffffffffffffffffffffffffffffffffffffff1916600860f81b84167effffffffffffffffffffffffffffffffffffffffffffffffffffffffffffff1916146107ee57601060f81b7effffffffffffffffffffffffffffffffffffffffffffffffffffffffffffff1916601060f81b84167effffffffffffffffffffffffffffffffffffffffffffffffffffffffffffff1916036107ed575f90506107f3565b5b600190505b92915050565b5f5f8490505f8490505f825190505f825190505f5f90505b828110156108e257818188610826919061191c565b10610838575f955050505050506108ec565b838188610845919061191c565b8151811061085657610855611717565b5b602001015160f81c60f81b7effffffffffffffffffffffffffffffffffffffffffffffffffffffffffffff191685828151811061089657610895611717565b5b602001015160f81c60f81b7effffffffffffffffffffffffffffffffffffffffffffffffffffffffffffff1916146108d5575f955050505050506108ec565b8080600101915050610811565b5060019450505050505b9392505050565b6060835180156109f5576003600282010460021b60405192507f4142434445464748494a4b4c4d4e4f505152535455565758595a616263646566601f526106708515027f6768696a6b6c6d6e6f707172737475767778797a303132333435363738392d5f18603f526020830181810183886020010180515f82525b6001156109c25760038a0199508951603f8160121c16515f53603f81600c1c1651600153603f8160061c1651600253603f8116516003535f5185526004850194508385106109bc57506109c2565b5061096e565b8082526020830160405260038606600204613d3d60f01b81860352808915150290505f8186035280860388525050505050505b509392505050565b5f5f5f61010073ffffffffffffffffffffffffffffffffffffffff1686865f01518760200151875f01518860200151604051602001610a4095949392919061194f565b604051602081830303815290604052604051610a5c919061188a565b5f60405180830381855afa9150503d805f8114610a94576040519150601f19603f3d011682016040523d82523d5f602084013e610a99565b606091505b5091509150818015610aac575060208151145b8015610afb5750600160f81b81601f81518110610acc57610acb611717565b5b602001015160f81c60f81b7effffffffffffffffffffffffffffffffffffffffffffffffffffffffffffff1916145b915081925050509392505050565b5f604051905090565b5f5ffd5b5f5ffd5b5f5ffd5b5f60408284031215610b3357610b32610b1a565b5b81905092915050565b5f60608284031215610b5157610b50610b1a565b5b81905092915050565b5f5f60a08385031215610b7057610b6f610b12565b5b5f610b7d85828601610b1e565b9250506040610b8e85828601610b3c565b9150509250929050565b5f73ffffffffffffffffffffffffffffffffffffffff82169050919050565b5f610bc182610b98565b9050919050565b610bd181610bb7565b8114610bdb575f5ffd5b50565b5f81359050610bec81610bc8565b92915050565b5f819050919050565b610c0481610bf2565b8114610c0e575f5ffd5b50565b5f81359050610c1f81610bfb565b92915050565b5f5ffd5b5f5ffd5b5f5ffd5b5f5f83601f840112610c4657610c45610c25565b5b8235905067ffffffffffffffff811115610c6357610c62610c29565b5b602083019150836001820283011115610c7f57610c7e610c2d565b5b9250929050565b5f60408284031215610c9b57610c9a610b1a565b5b81905092915050565b5f60a08284031215610cb957610cb8610b1a565b5b81905092915050565b5f5f5f5f5f5f60c08789031215610cdc57610cdb610b12565b5b5f610ce989828a01610bde565b9650506020610cfa89828a01610c11565b955050604087013567ffffffffffffffff811115610d1b57610d1a610b16565b5b610d2789828a01610c31565b94509450506060610d3a89828a01610c86565b92505060a087013567ffffffffffffffff811115610d5b57610d5a610b16565b5b610d6789828a01610ca4565b9150509295509295509295565b610d7d81610bf2565b82525050565b5f602082019050610d965f830184610d74565b92915050565b5f604082019050610daf5f830185610d74565b610dbc6020830184610d74565b9392505050565b5f819050919050565b610ddd610dd882610bf2565b610dc3565b82525050565b5f610dee8286610dcc565b602082019150610dfe8285610dcc565b602082019150610e0e8284610dcc565b602082019150819050949350505050565b7f4e487b71000000000000000000000000000000000000000000000000000000005f52601160045260245ffd5b5f610e5682610bf2565b91507fffffffffffffffffffffffffffffffffffffffffffffffffffffffffffffffff8203610e8857610e87610e1f565b5b600182019050919050565b5f60ff82169050919050565b610ea881610e93565b8114610eb2575f5ffd5b50565b5f81359050610ec381610e9f565b92915050565b5f60208284031215610ede57610edd610b12565b5b5f610eeb84828501610eb5565b91505092915050565b5f819050919050565b610f0681610ef4565b82525050565b610f1581610e93565b82525050565b5f608082019050610f2e5f830187610efd565b610f3b6020830186610f0c565b610f486040830185610efd565b610f556060830184610efd565b95945050505050565b5f82825260208201905092915050565b7f556e617574686f72697a656400000000000000000000000000000000000000005f82015250565b5f610fa2600c83610f5e565b9150610fad82610f6e565b602082019050919050565b5f6020820190508181035f830152610fcf81610f96565b9050919050565b5f8135610fe281610bfb565b80915050919050565b5f815f1b9050919050565b5f7fffffffffffffffffffffffffffffffffffffffffffffffffffffffffffffffff61102184610feb565b9350801983169250808416831791505092915050565b5f819050919050565b5f61105a61105561105084610bf2565b611037565b610bf2565b9050919050565b5f819050919050565b61107382611040565b61108661107f82611061565b8354610ff6565b8255505050565b5f81015f83018061109d81610fd6565b90506110a9818461106a565b5050506001810160208301806110be81610fd6565b90506110ca818461106a565b5050505050565b6110db828261108d565b5050565b5f6110ed6020840184610c11565b905092915050565b6110fe81610bf2565b82525050565b5f61110f83836110f5565b60208301905092915050565b5f820161112a5f8301836110df565b6111348482611104565b93505061114460208301836110df565b61114e8482611104565b935050505050565b5f611161828461111b565b60408201915081905092915050565b5f8160601b9050919050565b5f61118682611170565b9050919050565b5f6111978261117c565b9050919050565b6111af6111aa82610bb7565b61118d565b82525050565b5f81905092915050565b828183375f83830152505050565b5f6111d883856111b5565b93506111e58385846111bf565b82840190509392505050565b5f6111fc8288610dcc565b60208201915061120c828761119e565b60148201915061121c8286610dcc565b60208201915061122d8284866111cd565b91508190509695505050505050565b5f5ffd5b5f601f19601f8301169050919050565b7f4e487b71000000000000000000000000000000000000000000000000000000005f52604160045260245ffd5b61128682611240565b810181811067ffffffffffffffff821117156112a5576112a4611250565b5b80604052505050565b5f6112b7610b09565b90506112c3828261127d565b919050565b5f5ffd5b5f5ffd5b5f67ffffffffffffffff8211156112ea576112e9611250565b5b6112f382611240565b9050602081019050919050565b5f61131261130d846112d0565b6112ae565b90508281526020810184848401111561132e5761132d6112cc565b5b6113398482856111bf565b509392505050565b5f82601f83011261135557611354610c25565b5b8135611365848260208601611300565b91505092915050565b5f67ffffffffffffffff82111561138857611387611250565b5b61139182611240565b9050602081019050919050565b5f6113b06113ab8461136e565b6112ae565b9050828152602081018484840111156113cc576113cb6112cc565b5b6113d78482856111bf565b509392505050565b5f82601f8301126113f3576113f2610c25565b5b813561140384826020860161139e565b91505092915050565b5f61ffff82169050919050565b6114228161140c565b811461142c575f5ffd5b50565b5f8135905061143d81611419565b92915050565b5f8115159050919050565b61145781611443565b8114611461575f5ffd5b50565b5f813590506114728161144e565b92915050565b5f60a0828403121561148d5761148c61123c565b5b61149760a06112ae565b90505f82013567ffffffffffffffff8111156114b6576114b56112c8565b5b6114c284828501611341565b5f83015250602082013567ffffffffffffffff8111156114e5576114e46112c8565b5b6114f1848285016113df565b60208301525060406115058482850161142f565b60408301525060606115198482850161142f565b606083015250608061152d84828501611464565b60808301525092915050565b5f6115443683611478565b9050919050565b5f604082840312156115605761155f61123c565b5b61156a60406112ae565b90505f61157984828501610c11565b5f83015250602061158c84828501610c11565b60208301525092915050565b5f604082840312156115ad576115ac610b12565b5b5f6115ba8482850161154b565b91505092915050565b7f496e76616c6964207369676e61747572650000000000000000000000000000005f82015250565b5f6115f7601183610f5e565b9150611602826115c3565b602082019050919050565b5f6020820190508181035f830152611624816115eb565b9050919050565b5f6116378284866111cd565b91508190509392505050565b7f43616c6c206661696c65640000000000000000000000000000000000000000005f82015250565b5f611677600b83610f5e565b915061168282611643565b602082019050919050565b5f6020820190508181035f8301526116a48161166b565b9050919050565b5f82825260208201905092915050565b5f6116c683856116ab565b93506116d38385846111bf565b6116dc83611240565b840190509392505050565b5f6040820190506116fa5f830186610d74565b818103602083015261170d8184866116bb565b9050949350505050565b7f4e487b71000000000000000000000000000000000000000000000000000000005f52603260045260245ffd5b5f819050919050565b61175e61175982610ef4565b611744565b82525050565b5f61176f828461174d565b60208201915081905092915050565b7f226368616c6c656e6765223a2200000000000000000000000000000000000000815250565b5f81519050919050565b5f81905092915050565b8281835e5f83830152505050565b5f6117d0826117a4565b6117da81856117ae565b93506117ea8185602086016117b8565b80840191505092915050565b7f2200000000000000000000000000000000000000000000000000000000000000815250565b5f6118268261177e565b600d8201915061183682846117c6565b9150611841826117f6565b60018201915081905092915050565b5f81519050919050565b5f61186482611850565b61186e81856111b5565b935061187e8185602086016117b8565b80840191505092915050565b5f611895828461185a565b915081905092915050565b6118a981610ef4565b81146118b3575f5ffd5b50565b5f815190506118c4816118a0565b92915050565b5f602082840312156118df576118de610b12565b5b5f6118ec848285016118b6565b91505092915050565b5f611900828561185a565b915061190c828461174d565b6020820191508190509392505050565b5f61192682610bf2565b915061193183610bf2565b925082820190508082111561194957611948610e1f565b5b92915050565b5f60a0820190506119625f830188610efd565b61196f6020830187610d74565b61197c6040830186610d74565b6119896060830185610d74565b6119966080830184610d74565b969550505050505056fea2646970667358221220de9cf586a6d61b1ae7c694b1a3067ed2f9f3dd2d5d13b6b14a4d4f3626fa7d2764736f6c634300081e0033","linkReferences":{}},"methodIdentifiers":{"authorize((uint256,uint256),(uint256,uint256,uint8))":"0f0b3785","authorizedKey()":"c417a8c5","execute(address,uint256,bytes,(uint256,uint256),(bytes,string,uint16,uint16,bool))":"3bc67d4b","nonce()":"affed0e0"},"id":1}